{
  "_format": "hh-sol-artifact-1",
  "contractName": "Staking",
  "sourceName": "contracts/Staking.sol",
  "abi": [
    {
      "inputs": [],
      "stateMutability": "payable",
      "type": "constructor"
    },
    {
      "inputs": [
        {
          "internalType": "uint256",
          "name": "positionId",
          "type": "uint256"
        }
      ],
      "name": "closePosition",
      "outputs": [],
      "stateMutability": "nonpayable",
      "type": "function"
    },
    {
      "inputs": [],
      "name": "currentPositionId",
      "outputs": [
        {
          "internalType": "uint256",
          "name": "",
          "type": "uint256"
        }
      ],
      "stateMutability": "view",
      "type": "function"
    },
    {
      "inputs": [
        {
          "internalType": "uint256",
          "name": "numDays",
          "type": "uint256"
        }
      ],
      "name": "getInterestRate",
      "outputs": [
        {
          "internalType": "uint256",
          "name": "",
          "type": "uint256"
        }
      ],
      "stateMutability": "view",
      "type": "function"
    },
    {
      "inputs": [],
      "name": "getLockPeriods",
      "outputs": [
        {
          "internalType": "uint256[]",
          "name": "",
          "type": "uint256[]"
        }
      ],
      "stateMutability": "view",
      "type": "function"
    },
    {
      "inputs": [
        {
          "internalType": "uint256",
          "name": "positionId",
          "type": "uint256"
        }
      ],
      "name": "getPositionById",
      "outputs": [
        {
          "components": [
            {
              "internalType": "uint256",
              "name": "positionId",
              "type": "uint256"
            },
            {
              "internalType": "address",
              "name": "walletAddress",
              "type": "address"
            },
            {
              "internalType": "uint256",
              "name": "createdDate",
              "type": "uint256"
            },
            {
              "internalType": "uint256",
              "name": "unlockDatw",
              "type": "uint256"
            },
            {
              "internalType": "uint256",
              "name": "percentInterest",
              "type": "uint256"
            },
            {
              "internalType": "uint256",
              "name": "weiStaked",
              "type": "uint256"
            },
            {
              "internalType": "uint256",
              "name": "weiInterest",
              "type": "uint256"
            },
            {
              "internalType": "bool",
              "name": "open",
              "type": "bool"
            }
          ],
          "internalType": "struct Staking.Position",
          "name": "",
          "type": "tuple"
        }
      ],
      "stateMutability": "view",
      "type": "function"
    },
    {
      "inputs": [
        {
          "internalType": "address",
          "name": "walletAddress",
          "type": "address"
        }
      ],
      "name": "getPositionIdsForAddress",
      "outputs": [
        {
          "internalType": "uint256[]",
          "name": "",
          "type": "uint256[]"
        }
      ],
      "stateMutability": "view",
      "type": "function"
    },
    {
      "inputs": [
        {
          "internalType": "uint256",
          "name": "",
          "type": "uint256"
        }
      ],
      "name": "lockPeriods",
      "outputs": [
        {
          "internalType": "uint256",
          "name": "",
          "type": "uint256"
        }
      ],
      "stateMutability": "view",
      "type": "function"
    },
    {
      "inputs": [],
      "name": "owner",
      "outputs": [
        {
          "internalType": "address",
          "name": "",
          "type": "address"
        }
      ],
      "stateMutability": "view",
      "type": "function"
    },
    {
      "inputs": [
        {
          "internalType": "address",
          "name": "",
          "type": "address"
        },
        {
          "internalType": "uint256",
          "name": "",
          "type": "uint256"
        }
      ],
      "name": "positionIdsByAddress",
      "outputs": [
        {
          "internalType": "uint256",
          "name": "",
          "type": "uint256"
        }
      ],
      "stateMutability": "view",
      "type": "function"
    },
    {
      "inputs": [
        {
          "internalType": "uint256",
          "name": "",
          "type": "uint256"
        }
      ],
      "name": "positions",
      "outputs": [
        {
          "internalType": "uint256",
          "name": "positionId",
          "type": "uint256"
        },
        {
          "internalType": "address",
          "name": "walletAddress",
          "type": "address"
        },
        {
          "internalType": "uint256",
          "name": "createdDate",
          "type": "uint256"
        },
        {
          "internalType": "uint256",
          "name": "unlockDatw",
          "type": "uint256"
        },
        {
          "internalType": "uint256",
          "name": "percentInterest",
          "type": "uint256"
        },
        {
          "internalType": "uint256",
          "name": "weiStaked",
          "type": "uint256"
        },
        {
          "internalType": "uint256",
          "name": "weiInterest",
          "type": "uint256"
        },
        {
          "internalType": "bool",
          "name": "open",
          "type": "bool"
        }
      ],
      "stateMutability": "view",
      "type": "function"
    },
    {
      "inputs": [
        {
          "internalType": "uint256",
          "name": "numDays",
          "type": "uint256"
        }
      ],
      "name": "stakeEther",
      "outputs": [],
      "stateMutability": "payable",
      "type": "function"
    },
    {
      "inputs": [
        {
          "internalType": "uint256",
          "name": "",
          "type": "uint256"
        }
      ],
      "name": "tiers",
      "outputs": [
        {
          "internalType": "uint256",
          "name": "",
          "type": "uint256"
        }
      ],
      "stateMutability": "view",
      "type": "function"
    }
  ],
  "bytecode": "0x6080604052336000806101000a81548173ffffffffffffffffffffffffffffffffffffffff021916908373ffffffffffffffffffffffffffffffffffffffff16021790555060006009819055506102bc600c600080815260200190815260200160002081905550610320600c6000601e815260200190815260200160002081905550610384600c6000603c8152602001908152602001600020819055506104b0600c6000605a815260200190815260200160002081905550600d60009080600181540180825580915050600190039060005260206000200160009091909190915055600d601e9080600181540180825580915050600190039060005260206000200160009091909190915055600d603c9080600181540180825580915050600190039060005260206000200160009091909190915055600d605a90806001815401808255809150506001900390600052602060002001600090919091909150556111888061016e6000396000f3fe6080604052600436106100a75760003560e01c80634c8f2a78116100645780634c8f2a78146101f65780638da5cb5b1461023357806399fbab881461025e578063a126d601146102a2578063b838ec86146102cb578063e4f9084114610308576100a7565b8063039af9eb146100ac5780630c196a74146100e95780631131c8cd1461012657806340d98a441461015157806341ee13be1461018e57806345eae373146101b9575b600080fd5b3480156100b857600080fd5b506100d360048036038101906100ce9190610aeb565b610324565b6040516100e09190610b27565b60405180910390f35b3480156100f557600080fd5b50610110600480360381019061010b9190610aeb565b61033c565b60405161011d9190610b27565b60405180910390f35b34801561013257600080fd5b5061013b610359565b6040516101489190610b27565b60405180910390f35b34801561015d57600080fd5b5061017860048036038101906101739190610ba0565b61035f565b6040516101859190610c8b565b60405180910390f35b34801561019a57600080fd5b506101a36103f6565b6040516101b09190610c8b565b60405180910390f35b3480156101c557600080fd5b506101e060048036038101906101db9190610cad565b61044e565b6040516101ed9190610b27565b60405180910390f35b34801561020257600080fd5b5061021d60048036038101906102189190610aeb565b61047f565b60405161022a9190610b27565b60405180910390f35b34801561023f57600080fd5b506102486104a3565b6040516102559190610cfc565b60405180910390f35b34801561026a57600080fd5b5061028560048036038101906102809190610aeb565b6104c7565b604051610299989796959493929190610d32565b60405180910390f35b3480156102ae57600080fd5b506102c960048036038101906102c49190610aeb565b61053c565b005b3480156102d757600080fd5b506102f260048036038101906102ed9190610aeb565b610722565b6040516102ff9190610e70565b60405180910390f35b610322600480360381019061031d9190610aeb565b6107fd565b005b600c6020528060005260406000206000915090505481565b6000600c6000838152602001908152602001600020549050919050565b60095481565b6060600b60008373ffffffffffffffffffffffffffffffffffffffff1673ffffffffffffffffffffffffffffffffffffffff1681526020019081526020016000208054806020026020016040519081016040528092919081815260200182805480156103ea57602002820191906000526020600020905b8154815260200190600101908083116103d6575b50505050509050919050565b6060600d80548060200260200160405190810160405280929190818152602001828054801561044457602002820191906000526020600020905b815481526020019060010190808311610430575b5050505050905090565b600b602052816000526040600020818154811061046a57600080fd5b90600052602060002001600091509150505481565b600d818154811061048f57600080fd5b906000526020600020016000915090505481565b60008054906101000a900473ffffffffffffffffffffffffffffffffffffffff1681565b600a6020528060005260406000206000915090508060000154908060010160009054906101000a900473ffffffffffffffffffffffffffffffffffffffff16908060020154908060030154908060040154908060050154908060060154908060070160009054906101000a900460ff16905088565b3373ffffffffffffffffffffffffffffffffffffffff16600a600083815260200190815260200160002060010160009054906101000a900473ffffffffffffffffffffffffffffffffffffffff1673ffffffffffffffffffffffffffffffffffffffff16146105e0576040517f08c379a00000000000000000000000000000000000000000000000000000000081526004016105d790610f0f565b60405180910390fd5b60011515600a600083815260200190815260200160002060070160009054906101000a900460ff1615151461064a576040517f08c379a000000000000000000000000000000000000000000000000000000000815260040161064190610f7b565b60405180910390fd5b6000600a600083815260200190815260200160002060070160006101000a81548160ff0219169083151502179055506000600a600083815260200190815260200160002060060154600a6000848152602001908152602001600020600501546106b39190610fca565b90503373ffffffffffffffffffffffffffffffffffffffff16816040516106d99061102f565b60006040518083038185875af1925050503d8060008114610716576040519150601f19603f3d011682016040523d82523d6000602084013e61071b565b606091505b5050505050565b61072a610a53565b600a600083815260200190815260200160002060405180610100016040529081600082015481526020016001820160009054906101000a900473ffffffffffffffffffffffffffffffffffffffff1673ffffffffffffffffffffffffffffffffffffffff1673ffffffffffffffffffffffffffffffffffffffff16815260200160028201548152602001600382015481526020016004820154815260200160058201548152602001600682015481526020016007820160009054906101000a900460ff1615151515815250509050919050565b6000600c60008381526020019081526020016000205411610853576040517f08c379a000000000000000000000000000000000000000000000000000000000815260040161084a90611090565b60405180910390fd5b60405180610100016040528060095481526020013373ffffffffffffffffffffffffffffffffffffffff168152602001428152602001620151808361089891906110b0565b426108a39190610fca565b8152602001600c60008481526020019081526020016000205481526020013481526020016108e4600c60008581526020019081526020016000205434610a30565b815260200160011515815250600a600060095481526020019081526020016000206000820151816000015560208201518160010160006101000a81548173ffffffffffffffffffffffffffffffffffffffff021916908373ffffffffffffffffffffffffffffffffffffffff16021790555060408201518160020155606082015181600301556080820151816004015560a0820151816005015560c0820151816006015560e08201518160070160006101000a81548160ff021916908315150217905550905050600b60003373ffffffffffffffffffffffffffffffffffffffff1673ffffffffffffffffffffffffffffffffffffffff1681526020019081526020016000206009549080600181540180825580915050600190039060005260206000200160009091909190915055600160096000828254610a269190610fca565b9250508190555050565b60006127108284610a4191906110b0565b610a4b9190611121565b905092915050565b60405180610100016040528060008152602001600073ffffffffffffffffffffffffffffffffffffffff16815260200160008152602001600081526020016000815260200160008152602001600081526020016000151581525090565b600080fd5b6000819050919050565b610ac881610ab5565b8114610ad357600080fd5b50565b600081359050610ae581610abf565b92915050565b600060208284031215610b0157610b00610ab0565b5b6000610b0f84828501610ad6565b91505092915050565b610b2181610ab5565b82525050565b6000602082019050610b3c6000830184610b18565b92915050565b600073ffffffffffffffffffffffffffffffffffffffff82169050919050565b6000610b6d82610b42565b9050919050565b610b7d81610b62565b8114610b8857600080fd5b50565b600081359050610b9a81610b74565b92915050565b600060208284031215610bb657610bb5610ab0565b5b6000610bc484828501610b8b565b91505092915050565b600081519050919050565b600082825260208201905092915050565b6000819050602082019050919050565b610c0281610ab5565b82525050565b6000610c148383610bf9565b60208301905092915050565b6000602082019050919050565b6000610c3882610bcd565b610c428185610bd8565b9350610c4d83610be9565b8060005b83811015610c7e578151610c658882610c08565b9750610c7083610c20565b925050600181019050610c51565b5085935050505092915050565b60006020820190508181036000830152610ca58184610c2d565b905092915050565b60008060408385031215610cc457610cc3610ab0565b5b6000610cd285828601610b8b565b9250506020610ce385828601610ad6565b9150509250929050565b610cf681610b62565b82525050565b6000602082019050610d116000830184610ced565b92915050565b60008115159050919050565b610d2c81610d17565b82525050565b600061010082019050610d48600083018b610b18565b610d55602083018a610ced565b610d626040830189610b18565b610d6f6060830188610b18565b610d7c6080830187610b18565b610d8960a0830186610b18565b610d9660c0830185610b18565b610da360e0830184610d23565b9998505050505050505050565b610db981610b62565b82525050565b610dc881610d17565b82525050565b61010082016000820151610de56000850182610bf9565b506020820151610df86020850182610db0565b506040820151610e0b6040850182610bf9565b506060820151610e1e6060850182610bf9565b506080820151610e316080850182610bf9565b5060a0820151610e4460a0850182610bf9565b5060c0820151610e5760c0850182610bf9565b5060e0820151610e6a60e0850182610dbf565b50505050565b600061010082019050610e866000830184610dce565b92915050565b600082825260208201905092915050565b7f4f6e6c7920706f736974696f6e2063726561746f72206d6179206d6f6469667960008201527f20706f736974696f6e0000000000000000000000000000000000000000000000602082015250565b6000610ef9602983610e8c565b9150610f0482610e9d565b604082019050919050565b60006020820190508181036000830152610f2881610eec565b9050919050565b7f506f736974696f6e20697320636c6f7365640000000000000000000000000000600082015250565b6000610f65601283610e8c565b9150610f7082610f2f565b602082019050919050565b60006020820190508181036000830152610f9481610f58565b9050919050565b7f4e487b7100000000000000000000000000000000000000000000000000000000600052601160045260246000fd5b6000610fd582610ab5565b9150610fe083610ab5565b9250828201905080821115610ff857610ff7610f9b565b5b92915050565b600081905092915050565b50565b6000611019600083610ffe565b915061102482611009565b600082019050919050565b600061103a8261100c565b9150819050919050565b7f4d617070696e67206e6f7420666f756e64000000000000000000000000000000600082015250565b600061107a601183610e8c565b915061108582611044565b602082019050919050565b600060208201905081810360008301526110a98161106d565b9050919050565b60006110bb82610ab5565b91506110c683610ab5565b92508282026110d481610ab5565b915082820484148315176110eb576110ea610f9b565b5b5092915050565b7f4e487b7100000000000000000000000000000000000000000000000000000000600052601260045260246000fd5b600061112c82610ab5565b915061113783610ab5565b925082611147576111466110f2565b5b82820490509291505056fea26469706673582212207022faa9eefc3fd35e731c397cae5eabe261ec0f69ea46be8af34f5c4092674764736f6c63430008180033",
  "linkReferences": {},
  "deployedLinkReferences": {}
}